:100000000C9434000C943E000C943E000C943E0082
:100010000C943E000C943E000C943E000C943E0068
:100020000C943E000C943E000C943E000C943E0058
:100030000C943E000C943E000C943E000C943E0048
:100040000C943E000C943E000C943E000C943E0038
:100050000C943E000C943E000C943E000C943E0028
:100060000C943E000C943E0011241FBECFEFD8E04C
:10007000DEBFCDBF0E94A5000C942C010C940000A3
:100080009C0197FF04C022273327281B390B97FDBB
:1000900003C05E9A28BD08955E98FCCF9C0197FF2F
:1000A00004C022273327281B390B97FD06C05B9A13
:1000B000309389002093880008955B98F9CF909140
:1000C0007C00907F892B80937C0080917A008064F3
:1000D00080937A0080917A0086FDFCCF8091780031
:1000E00090917900089590E02C9A2FEF33EC49E03D
:1000F000215030404040E1F700C000002C982FEF25
:1001000033EC49E0215030404040E1F700C00000AE
:100110009F5F8913E9CF089590E02B9A2FEF33EC7E
:1001200049E0215030404040E1F700C000002B98EA
:100130002FEF33EC49E0215030404040E1F700C060
:1001400000009F5F8913E9CF08951092B9008CE0F9
:100150008093B80084E08093BC0084B1816184B94D
:100160008AB183688AB928988BB18C778BB92FEFC5
:1001700089EF90E0215080409040E1F700C00000FE
:100180008AB188668AB9219A8091800081688093BB
:1001900080008091810082608093810084B58362B9
:1001A00084BD85B5826085BD10928900109288005B
:1001B00018BC87B1887F87B988B1887F88B980915A
:1001C0007A00876880937A0080917C0080648093B5
:1001D0007C0083E00E94730081E00E945F00853F05
:1001E000914058F481E00E948C008EEC9FEF0E94B9
:1001F0004E0082E390E00E94400080E00E945F0099
:100200008D3D910558F482E00E948C008CE99FEFAF
:100210000E944E0084E690E00E94400082E00E942E
:100220005F008D3D910558F483E00E948C0086E9C3
:1002300090E00E944E008AE69FEF0E94400081E01D
:100240000E9473008FEF91EE24E081509040204097
:0C025000E1F700C00000C0CFF894FFCF21
:00000001FF
