:100000000C9434000C9449000C9449000C94490061
:100010000C9449000C9449000C9449000C9449003C
:100020000C9449000C9449000C9449000C9449002C
:100030000C9449000C9449000C9449000C9449001C
:100040000C9449000C9449000C9449000C9449000C
:100050000C9449000C9449000C9449000C944900FC
:100060000C9449000C94490011241FBECFEFD8E036
:10007000DEBFCDBF11E0A0E0B1E0E4E3F6E002C0F6
:1000800005900D92AC30B107D9F70E94FA000C949C
:1000900018030C9400009C0197FF04C0222733270B
:1000A000281B390B97FD03C05E9A28BD08955E9802
:1000B000FCCF9C0197FF04C022273327281B390B54
:1000C00097FD06C05B9A30938900209388000895BD
:1000D0005B98F9CF90917C00907F892B80937C0076
:1000E00080917A00806480937A0080917A0086FD06
:1000F000FCCF809178009091790008958093BB00A7
:1001000084E88093BC008091BC0087FFFCCF909175
:10011000B900987F81E0983209F480E0089584E97D
:100120008093BC008091BC0084FDFCCF089594EACC
:100130009093BC009091BC0097FFFCCF9091B900C8
:10014000987F983089F48093BB0084E88093BC004A
:100150008091BC0087FFFCCF9091B900987F81E02F
:10016000983119F480E0089581E00895CF93DF93EA
:10017000D82FC62F82E50E9497008D2F0E947E0007
:100180008C2F0E947E00DF91CF910C948F0090E025
:100190002C9A2FEF33EC49E0215030404040E1F7FA
:1001A00000C000002C982FEF33EC49E02150304084
:1001B0004040E1F700C000009F5F8913E9CF089538
:1001C00090E09817B1F02B9A2FEF33EC49E02150D3
:1001D00030404040E1F700C000002B982FEF33EC97
:1001E00049E0215030404040E1F700C000009F5FEF
:1001F000E8CF08951092B9008CE08093B80084E0B5
:100200008093BC0084B1896184B98AB183688AB95A
:1002100028988BB18C778BB92FEF39EF60E02150A4
:1002200030406040E1F700C000008AB188668AB9BA
:10023000219A809180008168809380008091810064
:1002400082608093810084B5836284BD85B58260BD
:1002500085BD109289001092880018BC87B1887FF4
:1002600087B988B1887F88B980917A008768809340
:100270007A0080917C00806480937C0083E00E94FF
:10028000C7007FEF89E698E1715080409040E1F728
:1002900000C0000028988BB18C778BB9AFEFB9EF15
:1002A000E0E0A150B040E040E1F700C0000044E0D1
:1002B000E42E41E0F42E670158E0A52E51E0B52E62
:1002C00000E011E0C0E088248394912CD1E0DC0FA1
:1002D0008D2F0E94C700C23009F065C1289AEFE354
:1002E000FCE93197F1F700C0000060E088E80E9467
:1002F000B60061E080E80E94B60061E08FEF0E94E6
:10030000B60060E080E00E94B6006CE381E90E94E4
:10031000B60061E080E00E94B60060E08FEF0E94CE
:10032000B60060E080E80E94B60061E080E00E94D4
:10033000B6008FE39CE90197F1F700C00000AFE33E
:10034000BCE91197F1F700C00000F501C1915F0110
:1003500082E50E9497008AE80E947E008C2F0E940E
:100360007E000E948F008FE39CE90197F1F700C0A7
:1003700000008C2F880F0E949700C091B9000E9446
:100380008F00C87FC83109F019C181E0D8018C9372
:100390000E94E000AFEFB9E6E8E1A150B040E040D4
:1003A000E1F700C000000F5F1F4FFFEFCF1ADF0A19
:1003B000CD2FD43009F08ACFE0E0F1E080E021E0F9
:1003C00030E09191992321F0823009F011C1289AEF
:1003D0008F5F7FEFE71AF70A843099F78FE39CE984
:1003E0000197F1F700C0000085B1886185B99FEFE2
:1003F000A3ECB9E09150A040B040E1F700C000008C
:1004000085B1877E85B9EFEFF3EC29E0E150F0404C
:100410002040E1F700C0000085B1886185B93FEF59
:1004200063EC79E0315060407040E1F700C00000BB
:1004300085B1877E85B98FEF93ECA9E0815090401C
:10044000A040E1F700C0000094ECA92E24E8922E11
:100450003AE0C32ED12C08E011E080E0E82E81E0E4
:10046000F82EC0E0F70181917F01CF5F882309F466
:1004700047C08C2F0E94C700D801DC91BD2EBB0C59
:100480008B2D0E94970080E00E947E0081E00E94F8
:100490007E000E948F00BFEFE6E7F1E0B150E04040
:1004A000F040E1F700C000008B2D0E9497008EE124
:1004B0000E947E000E948F008B2D81600E94970019
:1004C000A092BC008091BC0087FFFCCFD091BB0004
:1004D0009092BC008091BC0087FFFCCFB090BB0025
:1004E0000E948F009D2F8B2D9C01235331092539AC
:1004F000310530F4B6010E940403862F0E94E0000B
:100500000F5F1F4FC43009F0ADCF81E00E946A0039
:10051000853F914040F48EEC9FEF0E94590082E3AA
:1005200090E00E944B0080E00E946A008D3D9105A2
:1005300040F48CE99FEF0E94590084E690E00E940D
:100540004B0082E00E946A008D3D910540F486E9EF
:1005500090E00E9459008AE69FEF0E944B0081E0E4
:100560000E946A00853F9140A0F080E00E946A00EE
:100570008D3D910570F082E00E946A008D3D9105ED
:1005800040F090E080E00E94590090E080E00E94FE
:100590004B006FEF71EE84E0615070408040E1F7F6
:1005A00000C0000058CF8BB1D6019C91940101C0CE
:1005B000220F9A95EAF7822B8BB991CEF80110821F
:1005C00085E02B9AFFEF20E732E0F15020403040E9
:1005D000E1F700C000002B986FEF70E792E06150E8
:1005E00070409040E1F700C00000815051F7D2CE3A
:1005F0009BB1D7014C91B90102C0660F771F4A9594
:10060000E2F7962B9BB9E4CEAA1BBB1B51E107C0B6
:10061000AA1FBB1FA617B70710F0A61BB70B881F92
:10062000991F5A95A9F780959095BC01CD01089521
:04063000F894FFCF6C
:0C063400010001010001000730313233E9
:00000001FF
