:100000000C9434000C9451000C9451000C94510049
:100010000C9451000C9451000C9451000C9451001C
:100020000C9451000C9451000C9451000C9451000C
:100030000C9451000C9451000C9451000C945100FC
:100040000C9451000C9451000C9451000C945100EC
:100050000C9451000C9451000C9451000C945100DC
:100060000C9451000C94510011241FBECFEFD8E026
:10007000DEBFCDBF11E0A0E0B1E0EEE9F6E002C0E6
:1000800005900D92A830B107D9F721E0A8E0B1E0C2
:1000900001C01D92AC30B207E1F70E94CF000C9472
:1000A0004D030C9400009C0197FF04C022273327C6
:1000B000281B390B97FD03C05E9A28BD08955E98F2
:1000C000FCCF9C0197FF04C022273327281B390B44
:1000D00097FD06C05B9A30938900209388000895AD
:1000E0005B98F9CF90917C00907F892B80937C0066
:1000F00080917A00806480937A0080917A0086FDF6
:10010000FCCF809178009091790008958093BB0096
:1001100084E88093BC008091BC0087FFFCCF909165
:10012000B900987F81E0983209F480E0089584E96D
:100130008093BC008091BC0084FDFCCF089594EABC
:100140009093BC009091BC0097FFFCCF9091B900B8
:10015000987F983089F48093BB0084E88093BC003A
:100160008091BC0087FFFCCF9091B900987F81E01F
:10017000983119F480E0089581E00895CF93DF93DA
:10018000D82FC62F82E50E949F008D2F0E948600E7
:100190008C2F0E948600DF91CF910C9497001092D3
:1001A000B9008CE08093B80084E08093BC0084B1F7
:1001B000896184B98AB183688AB928988BB18C77B0
:1001C0008BB92FEF39EF60E0215030406040E1F70C
:1001D00000C000008AB188668AB9219A80918000A7
:1001E000816880938000809181008260809381008B
:1001F00084B5836284BD85B5826085BD1092890017
:100200001092880018BC87B1887F87B988B1887F31
:1002100088B980917A00876880937A0080917C0009
:10022000806480937C007FEF83ED90E37150804089
:100230009040E1F700C000008AE02B9AAFEFB1EEEA
:10024000E4E0A150B040E040E1F700C000002B988E
:10025000FFEF21EE34E0F15020403040E1F700C0E4
:100260000000815051F728988BB18C778BB96FEFD4
:1002700079EF80E0615070408040E1F700C00000FD
:1002800040E0E42E41E0F42E670154E0A52E51E059
:10029000B52E08E011E0C0E088248394912CC23090
:1002A00009F0DBC0289AEFE3FCE93197F1F700C0D1
:1002B000000060E088E80E94BE0061E080E80E94E3
:1002C000BE0061E08FEF0E94BE0060E080E00E940F
:1002D000BE006CE381E90E94BE0061E080E00E9404
:1002E000BE0060E08FEF0E94BE0060E080E80E94E8
:1002F000BE0061E080E00E94BE008FE39CE90197B0
:10030000F1F700C00000AFE3BCE91197F1F700C0BE
:100310000000F501D1915F0182E50E949F008AE80B
:100320000E9486008D2F0E9486000E9497008FE316
:100330009CE90197F1F700C000008D2F880F0E9403
:100340009F00D091B9000E949700D87FD83109F062
:100350008FC081E0D8018C93AFEFB9E6E8E1A150FE
:10036000B040E040E1F700C00000CF5F0F5F1F4FDB
:10037000FFEFCF1ADF0AC43009F091CFE8E0F1E0D7
:1003800080E021E030E09191992321F0823009F062
:1003900089C0289A8F5F7FEFE71AF70A843099F7B0
:1003A0008FE39CE90197F1F700C0000085B18861F7
:1003B00085B99FEFA3ECB9E09150A040B040E1F7C0
:1003C00000C0000085B1877E85B9EFEFF3EC29E02E
:1003D000E150F0402040E1F700C0000085B18861A5
:1003E00085B93FEF63EC79E0315060407040E1F750
:1003F00000C0000085B1877E85B98FEF93ECA9E03E
:1004000081509040A040E1F700C00000C0E0912C76
:1004100024EC822E34E8732E81E00E9472007C016D
:1004200080E00E9472008C0182E00E9472008E3D8A
:10043000934008F055C0F6EBEF16F3E0FF0620F00E
:10044000063B134008F0E2C090E080E00E946100AB
:1004500090E080E00E94530032C08BB1D6019C91A5
:10046000940101C0220F9A95EAF7822B8BB91BCF1A
:10047000F801108285E02B9AFFEF20E732E0F1507F
:1004800020403040E1F700C000002B986FEF70E78C
:1004900092E0615070409040E1F700C00000815050
:1004A00051F75ACF9BB1D7014C91B90102C0660FE9
:1004B000771F4A95E2F7962B9BB96CCFC0E0992045
:1004C00009F4AACF88E790E00E94610088E790E0F5
:1004D0000E9453009394B4E09B129ECF912C9CCF2A
:1004E00036EBE31633E0F30688F4063B134038F4AA
:1004F0008AE69FEF0E94610086E990E0ABCF86E933
:1005000090E00E9461008AE69FEFA4CF063B134073
:1005100078F384E0E82E81E0F82E98E0C92E91E08F
:10052000D92E1C2FD0E000E0A12CC0E0D6018D9187
:100530006D01882309F47CC0F701B0806B2C660C38
:10054000862D0E949F0080E00E94860081E00E942C
:1005500086000E9497008FE59AEE0197F1F700C0A0
:100560000000862D0E949F008EE10E9486000E945E
:100570009700862D81600E949F008092BC00809130
:10058000BC0087FFFCCFB090BB007092BC00809194
:10059000BC0087FFFCCF6090BB000E9497009B2DA2
:1005A000862D9C012D5331092D3B310508F040C0AB
:1005B000CF5FD11136C088E89FEF0E94610088E7C5
:1005C00090E00E945300011106C0AA2009F454C013
:1005D000DD2309F44AC080EA90E00E94610080EACD
:1005E00090E00E945300C11169CF163008F44EC04C
:1005F000143108F064CF88E790E00E94610088E839
:100600009FEF0E945300C1E0C10F59CF86E990E0EF
:100610000E94610086E990E00E945300992493941F
:1006200051CFD13079F48436910550F40F5F10E04A
:10063000DF5F9FEFE91AF90AD43009F077CF0AC0DB
:10064000A394F5CFD23041F4D1E08436910508F07F
:10065000BACF0F5FD0E0B7CF88E790E00E9461008B
:1006600088E89FEF0E945300F5CF8AEB9FEF0E942E
:10067000610086E490E0B5CFDD2309F4B4CF86E4D1
:1006800090E00E9461008AEB9FEFABCF90E080E0AA
:0E0690000E94610090E080E0B4CFF894FFCFAC
:08069E00000100073031323386
:00000001FF
