:100000000C9434000C943E000C943E000C943E0082
:100010000C943E000C943E000C943E000C943E0068
:100020000C943E000C943E000C943E000C943E0058
:100030000C943E000C943E000C943E000C943E0048
:100040000C943E000C943E000C943E000C943E0038
:100050000C943E000C943E000C943E000C943E0028
:100060000C943E000C943E0011241FBECFEFD8E04C
:10007000DEBFCDBF0E9440000C94AE000C94000087
:1000800084B1896184B9289A8FE39CE90197F1F7DB
:1000900000C000001092B9008CE08093B80084E0AA
:1000A0008093BC009FEF21EE84E09150204080407F
:1000B000E1F700C0000084EA8093BC008091BC009E
:1000C00087FFFCCF8091B900887F883081F582E579
:1000D0008093BB0084E88093BC008091BC0087FFC4
:1000E000FCCF9091B900987F81E0983109F480E0CD
:1000F00094E99093BC009091BC0094FDFCCF8111D9
:1001000018C02C9A2B9A9FEF2DE389E49150204040
:100110008040E1F700C000002B989FEF2DE389E4B9
:10012000915020408040E1F700C00000EBCF81E01B
:10013000DFCF2B9A9FEF23EC89E091502040804045
:10014000E1F700C000002B989FEF23EC89E091506D
:1001500020408040E1F700C00000EBCFF894FFCFD3
:00000001FF
