:100000000C9434000C943E000C943E000C943E0082
:100010000C943E000C943E000C943E000C943E0068
:100020000C943E000C943E000C943E000C943E0058
:100030000C943E000C943E000C943E000C943E0048
:100040000C943E000C943E000C943E000C943E0038
:100050000C943E000C943E000C943E000C943E0028
:100060000C943E000C943E0011241FBECFEFD8E04C
:10007000DEBFCDBF0E94C7000C945D010C94000050
:100080008093BB0084E88093BC008091BC0087FF14
:10009000FCCF9091B900987F81E0983209F480E01C
:1000A000089584E98093BC008091BC0084FDFCCF5E
:1000B000089594EA9093BC009091BC0097FFFCCF08
:1000C0009091B900987F983089F48093BB0084E8C0
:1000D0008093BC008091BC0087FFFCCF9091B90059
:1000E000987F81E0983119F480E0089581E00895C7
:1000F000CF93DF9382E50E9459008EE10E94400079
:100100000E94510083E50E94590084EC8093BC005A
:100110008091BC0087FFFCCFD091BB0084E8809326
:10012000BC008091BC0087FFFCCFC091BB000E9447
:100130005100CE01DF91CF910895CF93DF93D82F57
:10014000C62F82E50E9459008D2F0E9440008C2FFF
:100150000E944000DF91CF910C94510090E02B9AC7
:100160002FEF33EC49E0215030404040E1F700C030
:1001700000002B982FEF33EC49E0215030404040F5
:10018000E1F700C000009F5F8913E9CF0895109246
:10019000B9008CE08093B80084E08093BC0060E0FC
:1001A00088E80E949D0061E080E80E949D0061E077
:1001B0008FEF0E949D0060E080E00E949D006CE354
:1001C00081E90E949D0061E080E00E949D0060E066
:1001D0008FEF0E949D0060E080E80E949D0061E03A
:1001E00080E00E949D008FE39CE90197F1F700C039
:1001F000000084B1896184B9289A8FE39CE9019752
:10020000F1F700C000009FEF21EE84E09150204004
:100210008040E1F700C0000085E00E94AE0082E56A
:100220000E945900C82F0E945100C11142C02C9A4F
:1002300061E080E00E949D009FEF26E781E0915001
:1002400020408040E1F700C000000E947800EC01EF
:100250009FEF23EC89E0915020408040E1F700C0FF
:10026000000061E080E00E949D009FEF26E781E0B2
:10027000915020408040E1F700C000000E947800CB
:100280008C01CE01C2968017910728F0C801C29652
:100290008C179D0718F483E00E94AE009FEF25EABB
:1002A0008EE0915020408040E1F700C00000E8015E
:0E02B000D8CF81E00E94AE00FCCFF894FFCFC3
:00000001FF
